{
  "_format": "hh-sol-artifact-1",
  "contractName": "Invoice1155",
  "sourceName": "contracts/Invoice1155.sol",
  "abi": [
    {
      "inputs": [],
      "stateMutability": "nonpayable",
      "type": "constructor"
    },
    {
      "inputs": [
        {
          "internalType": "address",
          "name": "sender",
          "type": "address"
        },
        {
          "internalType": "uint256",
          "name": "balance",
          "type": "uint256"
        },
        {
          "internalType": "uint256",
          "name": "needed",
          "type": "uint256"
        },
        {
          "internalType": "uint256",
          "name": "tokenId",
          "type": "uint256"
        }
      ],
      "name": "ERC1155InsufficientBalance",
      "type": "error"
    },
    {
      "inputs": [
        {
          "internalType": "address",
          "name": "approver",
          "type": "address"
        }
      ],
      "name": "ERC1155InvalidApprover",
      "type": "error"
    },
    {
      "inputs": [
        {
          "internalType": "uint256",
          "name": "idsLength",
          "type": "uint256"
        },
        {
          "internalType": "uint256",
          "name": "valuesLength",
          "type": "uint256"
        }
      ],
      "name": "ERC1155InvalidArrayLength",
      "type": "error"
    },
    {
      "inputs": [
        {
          "internalType": "address",
          "name": "operator",
          "type": "address"
        }
      ],
      "name": "ERC1155InvalidOperator",
      "type": "error"
    },
    {
      "inputs": [
        {
          "internalType": "address",
          "name": "receiver",
          "type": "address"
        }
      ],
      "name": "ERC1155InvalidReceiver",
      "type": "error"
    },
    {
      "inputs": [
        {
          "internalType": "address",
          "name": "sender",
          "type": "address"
        }
      ],
      "name": "ERC1155InvalidSender",
      "type": "error"
    },
    {
      "inputs": [
        {
          "internalType": "address",
          "name": "operator",
          "type": "address"
        },
        {
          "internalType": "address",
          "name": "owner",
          "type": "address"
        }
      ],
      "name": "ERC1155MissingApprovalForAll",
      "type": "error"
    },
    {
      "inputs": [
        {
          "internalType": "address",
          "name": "owner",
          "type": "address"
        }
      ],
      "name": "OwnableInvalidOwner",
      "type": "error"
    },
    {
      "inputs": [
        {
          "internalType": "address",
          "name": "account",
          "type": "address"
        }
      ],
      "name": "OwnableUnauthorizedAccount",
      "type": "error"
    },
    {
      "anonymous": false,
      "inputs": [
        {
          "indexed": true,
          "internalType": "address",
          "name": "account",
          "type": "address"
        },
        {
          "indexed": true,
          "internalType": "address",
          "name": "operator",
          "type": "address"
        },
        {
          "indexed": false,
          "internalType": "bool",
          "name": "approved",
          "type": "bool"
        }
      ],
      "name": "ApprovalForAll",
      "type": "event"
    },
    {
      "anonymous": false,
      "inputs": [
        {
          "indexed": true,
          "internalType": "address",
          "name": "previousOwner",
          "type": "address"
        },
        {
          "indexed": true,
          "internalType": "address",
          "name": "newOwner",
          "type": "address"
        }
      ],
      "name": "OwnershipTransferred",
      "type": "event"
    },
    {
      "anonymous": false,
      "inputs": [
        {
          "indexed": true,
          "internalType": "address",
          "name": "operator",
          "type": "address"
        },
        {
          "indexed": true,
          "internalType": "address",
          "name": "from",
          "type": "address"
        },
        {
          "indexed": true,
          "internalType": "address",
          "name": "to",
          "type": "address"
        },
        {
          "indexed": false,
          "internalType": "uint256[]",
          "name": "ids",
          "type": "uint256[]"
        },
        {
          "indexed": false,
          "internalType": "uint256[]",
          "name": "values",
          "type": "uint256[]"
        }
      ],
      "name": "TransferBatch",
      "type": "event"
    },
    {
      "anonymous": false,
      "inputs": [
        {
          "indexed": true,
          "internalType": "address",
          "name": "operator",
          "type": "address"
        },
        {
          "indexed": true,
          "internalType": "address",
          "name": "from",
          "type": "address"
        },
        {
          "indexed": true,
          "internalType": "address",
          "name": "to",
          "type": "address"
        },
        {
          "indexed": false,
          "internalType": "uint256",
          "name": "id",
          "type": "uint256"
        },
        {
          "indexed": false,
          "internalType": "uint256",
          "name": "value",
          "type": "uint256"
        }
      ],
      "name": "TransferSingle",
      "type": "event"
    },
    {
      "anonymous": false,
      "inputs": [
        {
          "indexed": false,
          "internalType": "string",
          "name": "value",
          "type": "string"
        },
        {
          "indexed": true,
          "internalType": "uint256",
          "name": "id",
          "type": "uint256"
        }
      ],
      "name": "URI",
      "type": "event"
    },
    {
      "inputs": [
        {
          "internalType": "address",
          "name": "account",
          "type": "address"
        },
        {
          "internalType": "uint256",
          "name": "id",
          "type": "uint256"
        }
      ],
      "name": "balanceOf",
      "outputs": [
        {
          "internalType": "uint256",
          "name": "",
          "type": "uint256"
        }
      ],
      "stateMutability": "view",
      "type": "function"
    },
    {
      "inputs": [
        {
          "internalType": "address[]",
          "name": "accounts",
          "type": "address[]"
        },
        {
          "internalType": "uint256[]",
          "name": "ids",
          "type": "uint256[]"
        }
      ],
      "name": "balanceOfBatch",
      "outputs": [
        {
          "internalType": "uint256[]",
          "name": "",
          "type": "uint256[]"
        }
      ],
      "stateMutability": "view",
      "type": "function"
    },
    {
      "inputs": [],
      "name": "currentTokenId",
      "outputs": [
        {
          "internalType": "uint256",
          "name": "",
          "type": "uint256"
        }
      ],
      "stateMutability": "view",
      "type": "function"
    },
    {
      "inputs": [
        {
          "internalType": "address",
          "name": "account",
          "type": "address"
        },
        {
          "internalType": "address",
          "name": "operator",
          "type": "address"
        }
      ],
      "name": "isApprovedForAll",
      "outputs": [
        {
          "internalType": "bool",
          "name": "",
          "type": "bool"
        }
      ],
      "stateMutability": "view",
      "type": "function"
    },
    {
      "inputs": [
        {
          "internalType": "address",
          "name": "to",
          "type": "address"
        },
        {
          "internalType": "uint256",
          "name": "amount",
          "type": "uint256"
        },
        {
          "internalType": "string",
          "name": "tokenURI",
          "type": "string"
        }
      ],
      "name": "mint",
      "outputs": [],
      "stateMutability": "nonpayable",
      "type": "function"
    },
    {
      "inputs": [],
      "name": "owner",
      "outputs": [
        {
          "internalType": "address",
          "name": "",
          "type": "address"
        }
      ],
      "stateMutability": "view",
      "type": "function"
    },
    {
      "inputs": [],
      "name": "renounceOwnership",
      "outputs": [],
      "stateMutability": "nonpayable",
      "type": "function"
    },
    {
      "inputs": [
        {
          "internalType": "address",
          "name": "from",
          "type": "address"
        },
        {
          "internalType": "address",
          "name": "to",
          "type": "address"
        },
        {
          "internalType": "uint256[]",
          "name": "ids",
          "type": "uint256[]"
        },
        {
          "internalType": "uint256[]",
          "name": "values",
          "type": "uint256[]"
        },
        {
          "internalType": "bytes",
          "name": "data",
          "type": "bytes"
        }
      ],
      "name": "safeBatchTransferFrom",
      "outputs": [],
      "stateMutability": "nonpayable",
      "type": "function"
    },
    {
      "inputs": [
        {
          "internalType": "address",
          "name": "from",
          "type": "address"
        },
        {
          "internalType": "address",
          "name": "to",
          "type": "address"
        },
        {
          "internalType": "uint256",
          "name": "id",
          "type": "uint256"
        },
        {
          "internalType": "uint256",
          "name": "value",
          "type": "uint256"
        },
        {
          "internalType": "bytes",
          "name": "data",
          "type": "bytes"
        }
      ],
      "name": "safeTransferFrom",
      "outputs": [],
      "stateMutability": "nonpayable",
      "type": "function"
    },
    {
      "inputs": [
        {
          "internalType": "address",
          "name": "operator",
          "type": "address"
        },
        {
          "internalType": "bool",
          "name": "approved",
          "type": "bool"
        }
      ],
      "name": "setApprovalForAll",
      "outputs": [],
      "stateMutability": "nonpayable",
      "type": "function"
    },
    {
      "inputs": [
        {
          "internalType": "bytes4",
          "name": "interfaceId",
          "type": "bytes4"
        }
      ],
      "name": "supportsInterface",
      "outputs": [
        {
          "internalType": "bool",
          "name": "",
          "type": "bool"
        }
      ],
      "stateMutability": "view",
      "type": "function"
    },
    {
      "inputs": [
        {
          "internalType": "address",
          "name": "newOwner",
          "type": "address"
        }
      ],
      "name": "transferOwnership",
      "outputs": [],
      "stateMutability": "nonpayable",
      "type": "function"
    },
    {
      "inputs": [
        {
          "internalType": "uint256",
          "name": "tokenId",
          "type": "uint256"
        }
      ],
      "name": "uri",
      "outputs": [
        {
          "internalType": "string",
          "name": "",
          "type": "string"
        }
      ],
      "stateMutability": "view",
      "type": "function"
    }
  ],
  "bytecode": "0x6080604052604051806020016040528060008152506003908162000024919062000438565b503480156200003257600080fd5b5033604051806020016040528060008152506200005581620000e360201b60201c565b50600073ffffffffffffffffffffffffffffffffffffffff168173ffffffffffffffffffffffffffffffffffffffff1603620000cb5760006040517f1e4fbdf7000000000000000000000000000000000000000000000000000000008152600401620000c2919062000564565b60405180910390fd5b620000dc81620000f860201b60201c565b5062000581565b8060029081620000f4919062000438565b5050565b6000600560009054906101000a900473ffffffffffffffffffffffffffffffffffffffff16905081600560006101000a81548173ffffffffffffffffffffffffffffffffffffffff021916908373ffffffffffffffffffffffffffffffffffffffff1602179055508173ffffffffffffffffffffffffffffffffffffffff168173ffffffffffffffffffffffffffffffffffffffff167f8be0079c531659141344cd1fd0a4f28419497f9722a3daafe3b4186f6b6457e060405160405180910390a35050565b600081519050919050565b7f4e487b7100000000000000000000000000000000000000000000000000000000600052604160045260246000fd5b7f4e487b7100000000000000000000000000000000000000000000000000000000600052602260045260246000fd5b600060028204905060018216806200024057607f821691505b602082108103620002565762000255620001f8565b5b50919050565b60008190508160005260206000209050919050565b60006020601f8301049050919050565b600082821b905092915050565b600060088302620002c07fffffffffffffffffffffffffffffffffffffffffffffffffffffffffffffffff8262000281565b620002cc868362000281565b95508019841693508086168417925050509392505050565b6000819050919050565b6000819050919050565b600062000319620003136200030d84620002e4565b620002ee565b620002e4565b9050919050565b6000819050919050565b6200033583620002f8565b6200034d620003448262000320565b8484546200028e565b825550505050565b600090565b6200036462000355565b620003718184846200032a565b505050565b5b8181101562000399576200038d6000826200035a565b60018101905062000377565b5050565b601f821115620003e857620003b2816200025c565b620003bd8462000271565b81016020851015620003cd578190505b620003e5620003dc8562000271565b83018262000376565b50505b505050565b600082821c905092915050565b60006200040d60001984600802620003ed565b1980831691505092915050565b6000620004288383620003fa565b9150826002028217905092915050565b6200044382620001be565b67ffffffffffffffff8111156200045f576200045e620001c9565b5b6200046b825462000227565b620004788282856200039d565b600060209050601f831160018114620004b057600084156200049b578287015190505b620004a785826200041a565b86555062000517565b601f198416620004c0866200025c565b60005b82811015620004ea57848901518255600182019150602085019450602081019050620004c3565b868310156200050a578489015162000506601f891682620003fa565b8355505b6001600288020188555050505b505050505050565b600073ffffffffffffffffffffffffffffffffffffffff82169050919050565b60006200054c826200051f565b9050919050565b6200055e816200053f565b82525050565b60006020820190506200057b600083018462000553565b92915050565b6128f580620005916000396000f3fe608060405234801561001057600080fd5b50600436106100cd5760003560e01c8063715018a61161008c578063d3fc986411610066578063d3fc986414610210578063e985e9c51461022c578063f242432a1461025c578063f2fde38b14610278576100cd565b8063715018a6146101cc5780638da5cb5b146101d6578063a22cb465146101f4576100cd565b80629a9b7b146100d2578062fdd58e146100f057806301ffc9a7146101205780630e89341c146101505780632eb2c2d6146101805780634e1273f41461019c575b600080fd5b6100da610294565b6040516100e791906117d9565b60405180910390f35b61010a60048036038101906101059190611892565b61029a565b60405161011791906117d9565b60405180910390f35b61013a6004803603810190610135919061192a565b6102f4565b6040516101479190611972565b60405180910390f35b61016a6004803603810190610165919061198d565b6103d6565b6040516101779190611a4a565b60405180910390f35b61019a60048036038101906101959190611c69565b6104bb565b005b6101b660048036038101906101b19190611dfb565b610563565b6040516101c39190611f31565b60405180910390f35b6101d4610672565b005b6101de610686565b6040516101eb9190611f62565b60405180910390f35b61020e60048036038101906102099190611fa9565b6106b0565b005b61022a6004803603810190610225919061208a565b6106c6565b005b610246600480360381019061024191906120f9565b61071a565b6040516102539190611972565b60405180910390f35b61027660048036038101906102719190612139565b6107ae565b005b610292600480360381019061028d91906121d0565b610856565b005b60065481565b600080600083815260200190815260200160002060008473ffffffffffffffffffffffffffffffffffffffff1673ffffffffffffffffffffffffffffffffffffffff16815260200190815260200160002054905092915050565b60007fd9b67a26000000000000000000000000000000000000000000000000000000007bffffffffffffffffffffffffffffffffffffffffffffffffffffffff1916827bffffffffffffffffffffffffffffffffffffffffffffffffffffffff191614806103bf57507f0e89341c000000000000000000000000000000000000000000000000000000007bffffffffffffffffffffffffffffffffffffffffffffffffffffffff1916827bffffffffffffffffffffffffffffffffffffffffffffffffffffffff1916145b806103cf57506103ce826108dc565b5b9050919050565b606060006004600084815260200190815260200160002080546103f89061222c565b80601f01602080910402602001604051908101604052809291908181526020018280546104249061222c565b80156104715780601f1061044657610100808354040283529160200191610471565b820191906000526020600020905b81548152906001019060200180831161045457829003601f168201915b50505050509050600081511161048f5761048a83610946565b6104b3565b6003816040516020016104a3929190612331565b6040516020818303038152906040525b915050919050565b60006104c56109da565b90508073ffffffffffffffffffffffffffffffffffffffff168673ffffffffffffffffffffffffffffffffffffffff161415801561050a5750610508868261071a565b155b1561054e5780866040517fe237d922000000000000000000000000000000000000000000000000000000008152600401610545929190612355565b60405180910390fd5b61055b86868686866109e2565b505050505050565b606081518351146105af57815183516040517f5b0599910000000000000000000000000000000000000000000000000000000081526004016105a692919061237e565b60405180910390fd5b6000835167ffffffffffffffff8111156105cc576105cb611a71565b5b6040519080825280602002602001820160405280156105fa5781602001602082028036833780820191505090505b50905060005b84518110156106675761063761061f8287610ada90919063ffffffff16565b6106328387610aee90919063ffffffff16565b61029a565b82828151811061064a576106496123a7565b5b6020026020010181815250508061066090612405565b9050610600565b508091505092915050565b61067a610b02565b6106846000610b89565b565b6000600560009054906101000a900473ffffffffffffffffffffffffffffffffffffffff16905090565b6106c26106bb6109da565b8383610c4f565b5050565b6106ce610b02565b600060065490506106f084828560405180602001604052806000815250610dbf565b6106fa8183610e58565b60016006600082825461070d919061244d565b9250508190555050505050565b6000600160008473ffffffffffffffffffffffffffffffffffffffff1673ffffffffffffffffffffffffffffffffffffffff16815260200190815260200160002060008373ffffffffffffffffffffffffffffffffffffffff1673ffffffffffffffffffffffffffffffffffffffff16815260200190815260200160002060009054906101000a900460ff16905092915050565b60006107b86109da565b90508073ffffffffffffffffffffffffffffffffffffffff168673ffffffffffffffffffffffffffffffffffffffff16141580156107fd57506107fb868261071a565b155b156108415780866040517fe237d922000000000000000000000000000000000000000000000000000000008152600401610838929190612355565b60405180910390fd5b61084e8686868686610ebd565b505050505050565b61085e610b02565b600073ffffffffffffffffffffffffffffffffffffffff168173ffffffffffffffffffffffffffffffffffffffff16036108d05760006040517f1e4fbdf70000000000000000000000000000000000000000000000000000000081526004016108c79190611f62565b60405180910390fd5b6108d981610b89565b50565b60007f01ffc9a7000000000000000000000000000000000000000000000000000000007bffffffffffffffffffffffffffffffffffffffffffffffffffffffff1916827bffffffffffffffffffffffffffffffffffffffffffffffffffffffff1916149050919050565b6060600280546109559061222c565b80601f01602080910402602001604051908101604052809291908181526020018280546109819061222c565b80156109ce5780601f106109a3576101008083540402835291602001916109ce565b820191906000526020600020905b8154815290600101906020018083116109b157829003601f168201915b50505050509050919050565b600033905090565b600073ffffffffffffffffffffffffffffffffffffffff168473ffffffffffffffffffffffffffffffffffffffff1603610a545760006040517f57f447ce000000000000000000000000000000000000000000000000000000008152600401610a4b9190611f62565b60405180910390fd5b600073ffffffffffffffffffffffffffffffffffffffff168573ffffffffffffffffffffffffffffffffffffffff1603610ac65760006040517f01a83514000000000000000000000000000000000000000000000000000000008152600401610abd9190611f62565b60405180910390fd5b610ad38585858585610fc8565b5050505050565b600060208202602084010151905092915050565b600060208202602084010151905092915050565b610b0a6109da565b73ffffffffffffffffffffffffffffffffffffffff16610b28610686565b73ffffffffffffffffffffffffffffffffffffffff1614610b8757610b4b6109da565b6040517f118cdaa7000000000000000000000000000000000000000000000000000000008152600401610b7e9190611f62565b60405180910390fd5b565b6000600560009054906101000a900473ffffffffffffffffffffffffffffffffffffffff16905081600560006101000a81548173ffffffffffffffffffffffffffffffffffffffff021916908373ffffffffffffffffffffffffffffffffffffffff1602179055508173ffffffffffffffffffffffffffffffffffffffff168173ffffffffffffffffffffffffffffffffffffffff167f8be0079c531659141344cd1fd0a4f28419497f9722a3daafe3b4186f6b6457e060405160405180910390a35050565b600073ffffffffffffffffffffffffffffffffffffffff168273ffffffffffffffffffffffffffffffffffffffff1603610cc15760006040517fced3e100000000000000000000000000000000000000000000000000000000008152600401610cb89190611f62565b60405180910390fd5b80600160008573ffffffffffffffffffffffffffffffffffffffff1673ffffffffffffffffffffffffffffffffffffffff16815260200190815260200160002060008473ffffffffffffffffffffffffffffffffffffffff1673ffffffffffffffffffffffffffffffffffffffff16815260200190815260200160002060006101000a81548160ff0219169083151502179055508173ffffffffffffffffffffffffffffffffffffffff168373ffffffffffffffffffffffffffffffffffffffff167f17307eab39ab6107e8899845ad3d59bd9653f200f220920489ca2b5937696c3183604051610db29190611972565b60405180910390a3505050565b600073ffffffffffffffffffffffffffffffffffffffff168473ffffffffffffffffffffffffffffffffffffffff1603610e315760006040517f57f447ce000000000000000000000000000000000000000000000000000000008152600401610e289190611f62565b60405180910390fd5b600080610e3e858561107a565b91509150610e50600087848487610fc8565b505050505050565b80600460008481526020019081526020016000209081610e789190612618565b50817f6bb7ff708619ba0610cba295a58592e0451dee2622938c8755667688daf3529b610ea4846103d6565b604051610eb19190611a4a565b60405180910390a25050565b600073ffffffffffffffffffffffffffffffffffffffff168473ffffffffffffffffffffffffffffffffffffffff1603610f2f5760006040517f57f447ce000000000000000000000000000000000000000000000000000000008152600401610f269190611f62565b60405180910390fd5b600073ffffffffffffffffffffffffffffffffffffffff168573ffffffffffffffffffffffffffffffffffffffff1603610fa15760006040517f01a83514000000000000000000000000000000000000000000000000000000008152600401610f989190611f62565b60405180910390fd5b600080610fae858561107a565b91509150610fbf8787848487610fc8565b50505050505050565b610fd4858585856110aa565b600073ffffffffffffffffffffffffffffffffffffffff168473ffffffffffffffffffffffffffffffffffffffff16146110735760006110126109da565b90506001845103611062576000611033600086610aee90919063ffffffff16565b9050600061104b600086610aee90919063ffffffff16565b905061105b838989858589611458565b5050611071565b61107081878787878761160c565b5b505b5050505050565b60608060405191506001825283602083015260408201905060018152826020820152604081016040529250929050565b80518251146110f457815181516040517f5b0599910000000000000000000000000000000000000000000000000000000081526004016110eb92919061237e565b60405180910390fd5b60006110fe6109da565b905060005b83518110156113135760006111218286610aee90919063ffffffff16565b905060006111388386610aee90919063ffffffff16565b9050600073ffffffffffffffffffffffffffffffffffffffff168873ffffffffffffffffffffffffffffffffffffffff161461126557600080600084815260200190815260200160002060008a73ffffffffffffffffffffffffffffffffffffffff1673ffffffffffffffffffffffffffffffffffffffff1681526020019081526020016000205490508181101561120d57888183856040517f03dee4c500000000000000000000000000000000000000000000000000000000815260040161120494939291906126ea565b60405180910390fd5b81810360008085815260200190815260200160002060008b73ffffffffffffffffffffffffffffffffffffffff1673ffffffffffffffffffffffffffffffffffffffff16815260200190815260200160002081905550505b600073ffffffffffffffffffffffffffffffffffffffff168773ffffffffffffffffffffffffffffffffffffffff1614611300578060008084815260200190815260200160002060008973ffffffffffffffffffffffffffffffffffffffff1673ffffffffffffffffffffffffffffffffffffffff16815260200190815260200160002060008282546112f8919061244d565b925050819055505b50508061130c90612405565b9050611103565b5060018351036113d2576000611333600085610aee90919063ffffffff16565b9050600061134b600085610aee90919063ffffffff16565b90508573ffffffffffffffffffffffffffffffffffffffff168773ffffffffffffffffffffffffffffffffffffffff168473ffffffffffffffffffffffffffffffffffffffff167fc3d58168c5ae7397731d063d5bbf3d657854427343f4c083240f7aacaa2d0f6285856040516113c392919061237e565b60405180910390a45050611451565b8373ffffffffffffffffffffffffffffffffffffffff168573ffffffffffffffffffffffffffffffffffffffff168273ffffffffffffffffffffffffffffffffffffffff167f4a39dc06d4c0dbc64b70af90fd698a233a518aa5d07e595d983b8c0526c8f7fb868660405161144892919061272f565b60405180910390a45b5050505050565b60008473ffffffffffffffffffffffffffffffffffffffff163b1115611604578373ffffffffffffffffffffffffffffffffffffffff1663f23a6e6187878686866040518663ffffffff1660e01b81526004016114b99594939291906127bb565b6020604051808303816000875af19250505080156114f557506040513d601f19601f820116820180604052508101906114f2919061282a565b60015b611579573d8060008114611525576040519150601f19603f3d011682016040523d82523d6000602084013e61152a565b606091505b50600081510361157157846040517f57f447ce0000000000000000000000000000000000000000000000000000000081526004016115689190611f62565b60405180910390fd5b805181602001fd5b63f23a6e6160e01b7bffffffffffffffffffffffffffffffffffffffffffffffffffffffff1916817bffffffffffffffffffffffffffffffffffffffffffffffffffffffff19161461160257846040517f57f447ce0000000000000000000000000000000000000000000000000000000081526004016115f99190611f62565b60405180910390fd5b505b505050505050565b60008473ffffffffffffffffffffffffffffffffffffffff163b11156117b8578373ffffffffffffffffffffffffffffffffffffffff1663bc197c8187878686866040518663ffffffff1660e01b815260040161166d959493929190612857565b6020604051808303816000875af19250505080156116a957506040513d601f19601f820116820180604052508101906116a6919061282a565b60015b61172d573d80600081146116d9576040519150601f19603f3d011682016040523d82523d6000602084013e6116de565b606091505b50600081510361172557846040517f57f447ce00000000000000000000000000000000000000000000000000000000815260040161171c9190611f62565b60405180910390fd5b805181602001fd5b63bc197c8160e01b7bffffffffffffffffffffffffffffffffffffffffffffffffffffffff1916817bffffffffffffffffffffffffffffffffffffffffffffffffffffffff1916146117b657846040517f57f447ce0000000000000000000000000000000000000000000000000000000081526004016117ad9190611f62565b60405180910390fd5b505b505050505050565b6000819050919050565b6117d3816117c0565b82525050565b60006020820190506117ee60008301846117ca565b92915050565b6000604051905090565b600080fd5b600080fd5b600073ffffffffffffffffffffffffffffffffffffffff82169050919050565b600061183382611808565b9050919050565b61184381611828565b811461184e57600080fd5b50565b6000813590506118608161183a565b92915050565b61186f816117c0565b811461187a57600080fd5b50565b60008135905061188c81611866565b92915050565b600080604083850312156118a9576118a86117fe565b5b60006118b785828601611851565b92505060206118c88582860161187d565b9150509250929050565b60007fffffffff0000000000000000000000000000000000000000000000000000000082169050919050565b611907816118d2565b811461191257600080fd5b50565b600081359050611924816118fe565b92915050565b6000602082840312156119405761193f6117fe565b5b600061194e84828501611915565b91505092915050565b60008115159050919050565b61196c81611957565b82525050565b60006020820190506119876000830184611963565b92915050565b6000602082840312156119a3576119a26117fe565b5b60006119b18482850161187d565b91505092915050565b600081519050919050565b600082825260208201905092915050565b60005b838110156119f45780820151818401526020810190506119d9565b60008484015250505050565b6000601f19601f8301169050919050565b6000611a1c826119ba565b611a2681856119c5565b9350611a368185602086016119d6565b611a3f81611a00565b840191505092915050565b60006020820190508181036000830152611a648184611a11565b905092915050565b600080fd5b7f4e487b7100000000000000000000000000000000000000000000000000000000600052604160045260246000fd5b611aa982611a00565b810181811067ffffffffffffffff82111715611ac857611ac7611a71565b5b80604052505050565b6000611adb6117f4565b9050611ae78282611aa0565b919050565b600067ffffffffffffffff821115611b0757611b06611a71565b5b602082029050602081019050919050565b600080fd5b6000611b30611b2b84611aec565b611ad1565b90508083825260208201905060208402830185811115611b5357611b52611b18565b5b835b81811015611b7c5780611b68888261187d565b845260208401935050602081019050611b55565b5050509392505050565b600082601f830112611b9b57611b9a611a6c565b5b8135611bab848260208601611b1d565b91505092915050565b600080fd5b600067ffffffffffffffff821115611bd457611bd3611a71565b5b611bdd82611a00565b9050602081019050919050565b82818337600083830152505050565b6000611c0c611c0784611bb9565b611ad1565b905082815260208101848484011115611c2857611c27611bb4565b5b611c33848285611bea565b509392505050565b600082601f830112611c5057611c4f611a6c565b5b8135611c60848260208601611bf9565b91505092915050565b600080600080600060a08688031215611c8557611c846117fe565b5b6000611c9388828901611851565b9550506020611ca488828901611851565b945050604086013567ffffffffffffffff811115611cc557611cc4611803565b5b611cd188828901611b86565b935050606086013567ffffffffffffffff811115611cf257611cf1611803565b5b611cfe88828901611b86565b925050608086013567ffffffffffffffff811115611d1f57611d1e611803565b5b611d2b88828901611c3b565b9150509295509295909350565b600067ffffffffffffffff821115611d5357611d52611a71565b5b602082029050602081019050919050565b6000611d77611d7284611d38565b611ad1565b90508083825260208201905060208402830185811115611d9a57611d99611b18565b5b835b81811015611dc35780611daf8882611851565b845260208401935050602081019050611d9c565b5050509392505050565b600082601f830112611de257611de1611a6c565b5b8135611df2848260208601611d64565b91505092915050565b60008060408385031215611e1257611e116117fe565b5b600083013567ffffffffffffffff811115611e3057611e2f611803565b5b611e3c85828601611dcd565b925050602083013567ffffffffffffffff811115611e5d57611e5c611803565b5b611e6985828601611b86565b9150509250929050565b600081519050919050565b600082825260208201905092915050565b6000819050602082019050919050565b611ea8816117c0565b82525050565b6000611eba8383611e9f565b60208301905092915050565b6000602082019050919050565b6000611ede82611e73565b611ee88185611e7e565b9350611ef383611e8f565b8060005b83811015611f24578151611f0b8882611eae565b9750611f1683611ec6565b925050600181019050611ef7565b5085935050505092915050565b60006020820190508181036000830152611f4b8184611ed3565b905092915050565b611f5c81611828565b82525050565b6000602082019050611f776000830184611f53565b92915050565b611f8681611957565b8114611f9157600080fd5b50565b600081359050611fa381611f7d565b92915050565b60008060408385031215611fc057611fbf6117fe565b5b6000611fce85828601611851565b9250506020611fdf85828601611f94565b9150509250929050565b600067ffffffffffffffff82111561200457612003611a71565b5b61200d82611a00565b9050602081019050919050565b600061202d61202884611fe9565b611ad1565b90508281526020810184848401111561204957612048611bb4565b5b612054848285611bea565b509392505050565b600082601f83011261207157612070611a6c565b5b813561208184826020860161201a565b91505092915050565b6000806000606084860312156120a3576120a26117fe565b5b60006120b186828701611851565b93505060206120c28682870161187d565b925050604084013567ffffffffffffffff8111156120e3576120e2611803565b5b6120ef8682870161205c565b9150509250925092565b600080604083850312156121105761210f6117fe565b5b600061211e85828601611851565b925050602061212f85828601611851565b9150509250929050565b600080600080600060a08688031215612155576121546117fe565b5b600061216388828901611851565b955050602061217488828901611851565b94505060406121858882890161187d565b93505060606121968882890161187d565b925050608086013567ffffffffffffffff8111156121b7576121b6611803565b5b6121c388828901611c3b565b9150509295509295909350565b6000602082840312156121e6576121e56117fe565b5b60006121f484828501611851565b91505092915050565b7f4e487b7100000000000000000000000000000000000000000000000000000000600052602260045260246000fd5b6000600282049050600182168061224457607f821691505b602082108103612257576122566121fd565b5b50919050565b600081905092915050565b60008190508160005260206000209050919050565b6000815461228a8161222c565b612294818661225d565b945060018216600081146122af57600181146122c4576122f7565b60ff19831686528115158202860193506122f7565b6122cd85612268565b60005b838110156122ef578154818901526001820191506020810190506122d0565b838801955050505b50505092915050565b600061230b826119ba565b612315818561225d565b93506123258185602086016119d6565b80840191505092915050565b600061233d828561227d565b91506123498284612300565b91508190509392505050565b600060408201905061236a6000830185611f53565b6123776020830184611f53565b9392505050565b600060408201905061239360008301856117ca565b6123a060208301846117ca565b9392505050565b7f4e487b7100000000000000000000000000000000000000000000000000000000600052603260045260246000fd5b7f4e487b7100000000000000000000000000000000000000000000000000000000600052601160045260246000fd5b6000612410826117c0565b91507fffffffffffffffffffffffffffffffffffffffffffffffffffffffffffffffff8203612442576124416123d6565b5b600182019050919050565b6000612458826117c0565b9150612463836117c0565b925082820190508082111561247b5761247a6123d6565b5b92915050565b60006020601f8301049050919050565b600082821b905092915050565b6000600883026124ce7fffffffffffffffffffffffffffffffffffffffffffffffffffffffffffffffff82612491565b6124d88683612491565b95508019841693508086168417925050509392505050565b6000819050919050565b600061251561251061250b846117c0565b6124f0565b6117c0565b9050919050565b6000819050919050565b61252f836124fa565b61254361253b8261251c565b84845461249e565b825550505050565b600090565b61255861254b565b612563818484612526565b505050565b5b818110156125875761257c600082612550565b600181019050612569565b5050565b601f8211156125cc5761259d81612268565b6125a684612481565b810160208510156125b5578190505b6125c96125c185612481565b830182612568565b50505b505050565b600082821c905092915050565b60006125ef600019846008026125d1565b1980831691505092915050565b600061260883836125de565b9150826002028217905092915050565b612621826119ba565b67ffffffffffffffff81111561263a57612639611a71565b5b612644825461222c565b61264f82828561258b565b600060209050601f8311600181146126825760008415612670578287015190505b61267a85826125fc565b8655506126e2565b601f19841661269086612268565b60005b828110156126b857848901518255600182019150602085019450602081019050612693565b868310156126d557848901516126d1601f8916826125de565b8355505b6001600288020188555050505b505050505050565b60006080820190506126ff6000830187611f53565b61270c60208301866117ca565b61271960408301856117ca565b61272660608301846117ca565b95945050505050565b600060408201905081810360008301526127498185611ed3565b9050818103602083015261275d8184611ed3565b90509392505050565b600081519050919050565b600082825260208201905092915050565b600061278d82612766565b6127978185612771565b93506127a78185602086016119d6565b6127b081611a00565b840191505092915050565b600060a0820190506127d06000830188611f53565b6127dd6020830187611f53565b6127ea60408301866117ca565b6127f760608301856117ca565b81810360808301526128098184612782565b90509695505050505050565b600081519050612824816118fe565b92915050565b6000602082840312156128405761283f6117fe565b5b600061284e84828501612815565b91505092915050565b600060a08201905061286c6000830188611f53565b6128796020830187611f53565b818103604083015261288b8186611ed3565b9050818103606083015261289f8185611ed3565b905081810360808301526128b38184612782565b9050969550505050505056fea2646970667358221220da07969ea87e5f0f8a578be394f7d67a82f1441dad47dd9914cf393b9b3482cf64736f6c63430008140033",
  "linkReferences": {},
  "deployedLinkReferences": {}
}